{
  "_format": "hh-sol-artifact-1",
  "contractName": "CryptoGallery",
  "sourceName": "contracts/CryptoGallery.sol",
  "abi": [
    {
      "anonymous": false,
      "inputs": [
        {
          "indexed": false,
          "internalType": "address",
          "name": "from",
          "type": "address"
        },
        {
          "indexed": false,
          "internalType": "uint256",
          "name": "amount",
          "type": "uint256"
        },
        {
          "indexed": false,
          "internalType": "uint256",
          "name": "timestamp",
          "type": "uint256"
        }
      ],
      "name": "Donation",
      "type": "event"
    },
    {
      "inputs": [
        {
          "internalType": "uint256",
          "name": "amount",
          "type": "uint256"
        }
      ],
      "name": "addDonationToBlockchain",
      "outputs": [],
      "stateMutability": "nonpayable",
      "type": "function"
    },
    {
      "inputs": [],
      "name": "getAllDonations",
      "outputs": [
        {
          "components": [
            {
              "internalType": "address",
              "name": "from",
              "type": "address"
            },
            {
              "internalType": "uint256",
              "name": "amount",
              "type": "uint256"
            },
            {
              "internalType": "uint256",
              "name": "timestamp",
              "type": "uint256"
            }
          ],
          "internalType": "struct CryptoGallery.DonationStruct[]",
          "name": "",
          "type": "tuple[]"
        }
      ],
      "stateMutability": "view",
      "type": "function"
    }
  ],
  "bytecode": "0x608060405234801561001057600080fd5b5061048b806100206000396000f3fe608060405234801561001057600080fd5b50600436106100365760003560e01c806338a59a071461003b578063d193d1c514610059575b600080fd5b610043610075565b6040516100509190610380565b60405180910390f35b610073600480360381019061006e91906103d3565b61013e565b005b60606000805480602002602001604051908101604052809291908181526020016000905b8282101561013557838290600052602060002090600302016040518060600160405290816000820160009054906101000a900473ffffffffffffffffffffffffffffffffffffffff1673ffffffffffffffffffffffffffffffffffffffff1673ffffffffffffffffffffffffffffffffffffffff1681526020016001820154815260200160028201548152505081526020019060010190610099565b50505050905090565b600060405180606001604052803373ffffffffffffffffffffffffffffffffffffffff16815260200183815260200142815250908060018154018082558091505060019003906000526020600020906003020160009091909190915060008201518160000160006101000a81548173ffffffffffffffffffffffffffffffffffffffff021916908373ffffffffffffffffffffffffffffffffffffffff160217905550602082015181600101556040820151816002015550507f106aac375bbcf013d1e52338bbf9e740009a1a3a6869f8daa1b72aa1620f5fec33824260405161022a9392919061041e565b60405180910390a150565b600081519050919050565b600082825260208201905092915050565b6000819050602082019050919050565b600073ffffffffffffffffffffffffffffffffffffffff82169050919050565b600061028c82610261565b9050919050565b61029c81610281565b82525050565b6000819050919050565b6102b5816102a2565b82525050565b6060820160008201516102d16000850182610293565b5060208201516102e460208501826102ac565b5060408201516102f760408501826102ac565b50505050565b600061030983836102bb565b60608301905092915050565b6000602082019050919050565b600061032d82610235565b6103378185610240565b935061034283610251565b8060005b8381101561037357815161035a88826102fd565b975061036583610315565b925050600181019050610346565b5085935050505092915050565b6000602082019050818103600083015261039a8184610322565b905092915050565b600080fd5b6103b0816102a2565b81146103bb57600080fd5b50565b6000813590506103cd816103a7565b92915050565b6000602082840312156103e9576103e86103a2565b5b60006103f7848285016103be565b91505092915050565b61040981610281565b82525050565b610418816102a2565b82525050565b60006060820190506104336000830186610400565b610440602083018561040f565b61044d604083018461040f565b94935050505056fea2646970667358221220256f8096780665c6b5318ad2eaeb98bb8561e53dbf73a984ad3d44b555a01b4464736f6c63430008110033",
  "linkReferences": {},
  "deployedLinkReferences": {}
}